:100000000C945E000C9486000C9486000C94860080
:100010000C9486000C9486000C9486000C94860048
:100020000C9486000C9486000C9486000C94860038
:100030000C9486000C9486000C9486000C94860028
:100040000C9426010C9486000C9486000C94860077
:100050000C9486000C9486000C9486000C94860008
:100060000C9486000C9486000000000024002700F9
:100070002A0000000000250028002B0004040404CE
:100080000404040402020202020203030303030342
:10009000010204081020408001020408102001021F
:1000A00004081020000000080002010000030407FB
:1000B00000000000000000001C037B0311241FBE91
:1000C000CFEFD8E0DEBFCDBF21E0A6E0B1E001C0B8
:1000D0001D92A932B207E1F711E0A0E0B1E0E4E936
:1000E000F9E002C005900D92A630B107D9F710E0F3
:1000F000CDE5D0E004C02197FE010E948B03CC35F2
:10010000D107C9F70E9470010C94BD040C94000043
:1001100090E0FC01EC55FF4F2491FC01E057FF4FAC
:100120003491FC01E458FF4FE491EE23B9F022230F
:1001300039F02330F1F098F4213009F1223019F12F
:10014000F0E0EE0FFF1FEE58FF4FA591B4918FB76F
:10015000F894EC9130953E233C938FBF089527305F
:10016000A9F02830C9F0243059F7809180008F7DA4
:1001700003C0809180008F7780938000E1CF84B5A9
:100180008F7784BDDDCF84B58F7DFBCF8091B000AC
:100190008F778093B000D4CF8091B0008F7DF9CF5E
:1001A000CF93DF9390E0FC01E057FF4F24918458F8
:1001B0009F4FFC0184918823D1F090E0880F991F14
:1001C000FC01E859FF4FA591B491FC01EE58FF4F97
:1001D000C591D49161110EC09FB7F8948C91E22F14
:1001E000E0958E238C932881E223E8839FBFDF91E3
:1001F000CF9108958FB7F894EC91E22BEC938FBFD9
:10020000F6CF3FB7F8948091210190912201A091FF
:100210002301B091240126B5A89B05C02F3F19F0FA
:100220000196A11DB11D3FBFBA2FA92F982F882776
:10023000BC01CD01620F711D811D911D42E0660F51
:10024000771F881F991F4A95D1F708951F920F9223
:100250000FB60F9211242F933F938F939F93AF93D9
:10026000BF9380911D0190911E01A0911F01B0913B
:10027000200130911C0123E0230F2D3758F5019602
:10028000A11DB11D20931C0180931D0190931E019F
:10029000A0931F01B0932001809121019091220130
:1002A000A0912301B09124010196A11DB11D80935D
:1002B000210190932201A0932301B0932401BF91C7
:1002C000AF919F918F913F912F910F900FBE0F9003
:1002D0001F90189526E8230F0296A11DB11DD2CFBD
:1002E000CF93DF93CDB7DEB729970FB6F894DEBF73
:1002F0000FBECDBF789484B5826084BD84B5816023
:1003000084BD85B5826085BD85B5816085BD8091E0
:100310006E00816080936E00109281008091810058
:100320008260809381008091810081608093810050
:10033000809180008160809380008091B100846012
:100340008093B1008091B00081608093B000809173
:100350007A00846080937A0080917A008260809332
:100360007A0080917A00816080937A0080917A008F
:10037000806880937A001092C10080910C01909166
:100380000D0197FD07C061E00E94D00080910C0133
:100390000E94880081E080930701F2E38F2E3324CE
:1003A0003A94A4E62A2EB0E0AB2EB0E0BB2E18E0C3
:1003B000912E40910A0150910B0170E060E0809114
:1003C0000F01909110010E94B60410E000E08091AE
:1003D00008019091090108171907B0F580910E01E5
:1003E00042E35FEF64E6882361F0829D900111246F
:1003F000632F839D90011124532F889DC0011124E8
:10040000492FE091140180910F01909110012091EA
:100410001101E213CDC09801220F331F200F311FAD
:10042000820F931FE0911101E80FF92FF11D6083F6
:10043000E0911201E80FF92FF11D50832091130173
:10044000820F911DFC01408380910F01909110015A
:10045000892B09F47BC00E940101C0901501D09046
:100460001601E0901701F09018016C157D058E05BE
:100470009F0540F460931501709316018093170156
:1004800090931801C0901501D0901601E0901701CB
:10049000F09018016C197D098E099F096C3271402A
:1004A00081059105C0F2F89480910A0190910B01A9
:1004B0009A838983E0910F01F0911001DF01119679
:1004C0008081898790910601E0911901F0911A01CC
:1004D00080911B01992309F477C09081982B98870C
:1004E0009081809589238F838F818C839B8258850F
:1004F0006F8149853B812C8189819A81508347FD99
:10050000252F3A952083262F39F0441F00C0000084
:100510006083000000C0F2CF38E04D91608300009E
:10052000019761F7F0931A01E093190149873B8322
:100530002C839A83898378940E940101609315012A
:100540007093160180931701909318010E94010186
:100550002B013C018CE2C82EDD24D394E12CF12C3C
:100560000E9401016419750986099709683E734064
:1005700081059105A8F321E0C21AD108E108F1082C
:1005800088EE480E83E0581E611C711CC114D10412
:10059000E104F10429F70F5F1F4F0032110509F044
:1005A00016CFA114B10409F404CF0E94000001CFBA
:1005B0009801220F331F220F331F820F931FE80F62
:1005C000F92FF11D10822ECF9081982B9887908162
:1005D000809589238F838F818E839D8258856F813B
:1005E00049853D812E8189819A81508347FD252F40
:1005F00000C000C0208300C000C000C000C000C018
:1006000060830000262F3A9541F0441F000000C08F
:1006100000C000C000C000C0E8CF38E04D9100C06D
:10062000608300C0019709F7F0931A01E093190164
:1006300049873D832E837DCF1092070110920E01D2
:1006400010921501109216011092170110921801C4
:1006500081E080931401809311011092120192E0C5
:10066000909313018093060180E690E090930B0134
:1006700080930A010E9491039093100180930F01CF
:10068000009781F120E6FC0111922A95E9F780E2BA
:1006900090E0909309018093080186E090E09093A8
:1006A0000D0180930C0180910701882339F061E0EE
:1006B00086E00E94D00086E00E948800E2E8F0E038
:1006C000E491F0E0EE0FFF1FEE58FF4F85919491FB
:1006D00090931A0180931901E6E9F0E0E491E09328
:1006E0001B01089510920B0110920A01109209014A
:1006F00010920801D2CF80910F01909110010E94B9
:100700002D0480910C0190910D0197FD03C060E0D4
:100710000C94D0000895EE0FFF1F0590F491E02D8A
:1007200009940F931F93CF93DF938230910510F4B8
:1007300082E090E0E0912701F091280130E020E094
:10074000B0E0A0E0309799F42115310509F44AC0D2
:10075000281B390B24303105D8F58A819B8161151E
:10076000710589F1FB0193838283FE0111C04081F1
:1007700051810281138148175907E0F04817590742
:1007800099F4109761F012960C93129713961C939C
:100790003296CF01DF91CF911F910F910895009371
:1007A000270110932801F4CF2115310551F042178C
:1007B000530738F0A901DB019A01BD01DF01F801FF
:1007C000C1CFEF01F9CF9093280180932701CDCFBE
:1007D000FE01E20FF31F8193919322503109398377
:1007E0002883D7CF2091250130912601232B41F476
:1007F00020910201309103013093260120932501BD
:1008000020910001309101012115310541F42DB7EE
:100810003EB74091040150910501241B350BE09136
:100820002501F0912601E217F307A0F42E1B3F0BE0
:100830002817390778F0AC014E5F5F4F2417350752
:1008400048F04E0F5F1F509326014093250181937E
:1008500091939FCFF0E0E0E09CCFCF93DF930097A0
:10086000E9F0FC01329713821282A0912701B09126
:100870002801ED0130E020E01097A1F420813181C2
:10088000820F931F209125013091260128173907E7
:1008900009F061C0F0932601E0932501DF91CF912B
:1008A0000895EA01CE17DF07E8F54A815B819E01D2
:1008B00041155105B1F7E901FB83EA83499159914B
:1008C000C40FD51FEC17FD0761F48081918102965A
:1008D000840F951FE90199838883828193819B838B
:1008E0008A83F0E0E0E012968D919C911397009737
:1008F000B9F52D913C911197CD010296820F931F6E
:1009000020912501309126012817390739F63097B3
:1009100051F51092280110922701B0932601A0935F
:100920002501BCCFD383C28340815181840F951FA1
:10093000C817D90761F44E5F5F4F88819981480FCE
:10094000591F518340838A819B8193838283211520
:10095000310509F0B0CFF0932801E09327019ECF35
:10096000FD01DC01C0CF13821282D7CFDC0101C0B0
:100970006D9341505040E0F7089510E0CDE5D0E090
:1009800004C0FE010E948B032196CE35D107C9F722
:04099000F894FFCF09
:06099400000029018000B3
:00000001FF
