:020000040000FA
:100000000C945D000C9485000C9485000C94850084
:100010000C9485000C9485000C9485000C9485004C
:100020000C9485000C9485000C9485000C94EC03D2
:100030000C9485000C9485000C9485000C9485002C
:100040000C944A030C9485000C94BA030C9494030A
:100050000C9485000C9485000C9485000C9485000C
:100060000C9485000C9485000000000024002700FB
:100070002A0000000000250028002B0004040404CE
:100080000404040402020202020203030303030342
:10009000010204081020408001020408102001021F
:1000A00004081020000000080002010000030407FB
:1000B0000000000000000000A80411241FBECFEFC4
:1000C000D8E0DEBFCDBF11E0A0E0B1E0E4E9F0E1AF
:1000D00002C005900D92A233B107D9F722E0A2E346
:1000E000B1E001C01D92A032B207E1F710E0CDE50A
:1000F000D0E004C02197FE010E944208CC35D10710
:10010000C9F70E941F050C9448080C940000CF9278
:10011000DF92EF92FF92DC01A03282E0B807D4F5C3
:10012000A53BB10514F0A4EBB0E040911B0228E818
:1001300030E0241B310947FD3395220F331F220F76
:10014000331F6901330FEE08FF0840911C0228E5B8
:1001500032E0241B310947FD3395220F331F220F54
:10016000331F032E000C440B550B2C193D094E096F
:100170005F09B7FF02C0B0E0A0E00E94FD0724EBDA
:1001800030E040E050E00E94D307C20ED31EE41ED0
:10019000F51ED601E0911A02EC3080F520911B0289
:1001A00088E890E0821B910927FD9395880F991F9D
:1001B000880F991FA817B90784F020911C0288E5C1
:1001C00092E0821B910927FD9395880F991F880F54
:1001D000991FA817B9070CF4CD010297880F991F32
:1001E0004FB7F8942E2F30E0F901EE0FFF1FE20F0A
:1001F000F31FEB50FE4F928381834FBFFF90EF9030
:10020000DF90CF90089590E0FC01EC55FF4F2491D2
:10021000FC01E057FF4F3491FC01E458FF4FE4919B
:10022000EE23C9F0222339F0233001F1A8F4213064
:1002300019F1223029F1F0E0EE0FFF1FEE58FF4FC9
:10024000A591B4918FB7F894EC91611126C03095C7
:100250003E233C938FBF08952730A9F02830C9F082
:10026000243049F7809180008F7D03C08091800009
:100270008F7780938000DFCF84B58F7784BDDBCF0D
:1002800084B58F7DFBCF8091B0008F778093B000D5
:10029000D2CF8091B0008F7DF9CF3E2BDACF8E5038
:1002A000806480937C0080917A00806480937A00DF
:1002B00080917A0086FDFCCF809178009091790042
:1002C00008953FB7F8948091540190915501A09101
:1002D0005601B091570126B5A89B05C02F3F19F0D4
:1002E0000196A11DB11D3FBFBA2FA92F982F8827B6
:1002F000BC01CD01620F711D811D911D42E0660F91
:10030000771F881F991F4A95D1F708958F929F9262
:10031000AF92BF92CF92DF92EF92FF924B015C01BE
:100320000E9461016B017C010E9461016C197D09D1
:100330008E099F09683E734081059105A8F321E06D
:10034000821A9108A108B10888EEC80E83E0D81E71
:10035000E11CF11C81149104A104B10429F7FF9060
:10036000EF90DF90CF90BF90AF909F908F900895C7
:10037000AF92BF92CF92DF92EF92FF920F931F93B3
:10038000CF93DF936C017B018B01040F151FEB01F1
:100390005E01AE18BF08C017D10759F06991D601A8
:1003A000ED91FC910190F081E02DC6010995892B1A
:1003B00079F7C501DF91CF911F910F91FF90EF90D9
:1003C000DF90CF90BF90AF900895FC01538D448D86
:1003D000252F30E0842F90E0821B930B541710F0F0
:1003E000CF96089501970895FC01918D828D9817FD
:1003F00061F0A28DAE0FBF2FB11D5D968C91928DD5
:100400009F5F9F73928F90E008958FEF9FEF089505
:10041000FC01918D828D981731F0828DE80FF11DCE
:10042000858D90E008958FEF9FEF0895FC01918DE9
:10043000228D892F90E0805C9F4F821B91098F73E2
:100440009927089588E591E00E94160221E0892B02
:1004500009F420E0822F089580E090E0892B29F0B4
:100460000E94220281110C9400000895FC01A48DC9
:10047000A80FB92FB11DA35ABF4F2C91848D90E0C6
:1004800001968F739927848FA689B7892C93A089A9
:10049000B1898C91837080648C93938D848D981333
:1004A00006C00288F389E02D80818F7D80830895C6
:1004B000EF92FF920F931F93CF93DF93EC0181E0B4
:1004C000888F9B8D8C8D98131AC0E889F98980815B
:1004D00085FF15C09FB7F894EE89FF896083E8898E
:1004E000F98980818370806480839FBF81E090E080
:1004F000DF91CF911F910F91FF90EF900895F62E0D
:100500000B8D10E00F5F1F4F0F731127E02E8C8DA6
:100510008E110CC00FB607FCFACFE889F9898081EB
:1005200085FFF5CFCE010E943602F1CFEB8DEC0FA7
:10053000FD2FF11DE35AFF4FF0829FB7F8940B8F08
:10054000EA89FB8980818062CFCFCF93DF93EC0172
:10055000888D8823B9F0AA89BB89E889F9898C91AB
:1005600085FD03C0808186FD0DC00FB607FCF7CF67
:100570008C9185FFF2CF808185FFEDCFCE010E9467
:100580003602E9CFDF91CF910895CF93DF93DC015D
:100590008C918C3008F06DC0CB01FB01E057FF4F10
:1005A000249184589F4FFC018491882399F090E016
:1005B000880F991FFC01E859FF4FC591D491FC01A8
:1005C000EE58FF4F859194918FB7F894E881E22B14
:1005D000E8838FBF8C91282F30E0F901EE0FFF1FC9
:1005E000E20FF31FEB50FE4F962F9F736081607CEC
:1005F000692B608311961C92119712961C92129788
:100600002CE0622F0E943608829FB001112430E056
:1006100020E0AB01420F531FFA01EE0FFF1FE40F62
:10062000F51FEB50FE4F908196FD16C02F5F3F4F98
:100630002C30310571F781110FC01092800082E0DB
:10064000809381001092850010928400B19A80916D
:100650006F00826080936F00EC918E2F90E0FC0120
:10066000EE0FFF1FE80FF91FEB50FE4F80818064F3
:1006700080838C91DF91CF910895FC01019000203F
:10068000E9F73197AF01481B590BBC0188E591E0B0
:100690000C94B8011F920F920FB60F9211242F9352
:1006A0003F938F939F93AF93BF938091500190910D
:1006B0005101A0915201B091530130914F0123E0BB
:1006C000230F2D3758F50196A11DB11D20934F0121
:1006D0008093500190935101A0935201B093530124
:1006E0008091540190915501A0915601B09157010C
:1006F0000196A11DB11D8093540190935501A093C3
:100700005601B0935701BF91AF919F918F913F9147
:100710002F910F900FBE0F901F90189526E8230F72
:100720000296A11DB11DD2CF1F920F920FB60F924C
:1007300011242F933F934F935F936F937F938F93E6
:100740009F93AF93BF93EF93FF9388E591E00E944F
:100750003602FF91EF91BF91AF919F918F917F9161
:100760006F915F914F913F912F910F900FBE0F901E
:100770001F9018951F920F920FB60F9211242F936E
:100780008F939F93EF93FF93E0916801F09169013C
:100790008081E0916E01F0916F0182FD1BC090811C
:1007A000809171018F5F8F7320917201821741F0E8
:1007B000E0917101F0E0E85AFE4F958F809371014E
:1007C000FF91EF919F918F912F910F900FBE0F90FE
:1007D0001F9018958081F4CF1F920F920FB60F9241
:1007E00011242F933F934F935F936F937F938F9336
:1007F0009F93AF93BF93CF93DF93EF93FF9380913A
:100800003201C0911902D0E087FF24C01092850008
:1008100010928400809132018F5F80933201809129
:100820003201082E000C990B8C179D0724F480913F
:1008300032018C30C4F1809184009091850004963F
:1008400080349C4908F47AC080918400909185009E
:10085000049676C080913201082E000C990B8C17FB
:100860009D07C4F6E09132018E2FEE0F990BFC012B
:10087000EE0FFF1FE80FF91FEB50FE4F808186FF40
:10088000C9CFE09132018E2FEE0F990BFC01EE0FD4
:10089000FF1FE80FF91FEB50FE4F808160E08F7360
:1008A0000E940301B7CF2091840030918500E09130
:1008B00032018E2FEE0F990BFC01EE0FFF1FE80F98
:1008C000F91FEB50FE4F81819281820F931F90930D
:1008D000890080938800E09132018E2FEE0F990BF2
:1008E000FC01EE0FFF1FE80FF91FEB50FE4F808158
:1008F00086FF11C0E09132018E2FEE0F990BFC01A3
:10090000EE0FFF1FE80FF91FEB50FE4F808161E0F3
:100910008F730E940301FF91EF91DF91CF91BF91FF
:10092000AF919F918F917F916F915F914F913F9187
:100930002F910F900FBE0F901F90189580E49CE9A7
:1009400090938900809388008FEF80933201E3CFEA
:1009500010925B0110925A0188EE93E0A0E0B0E0A3
:1009600080935C0190935D01A0935E01B0935F0161
:1009700084E191E0909359018093580185EC90E0D7
:10098000909365018093640184EC90E090936701FB
:100990008093660180EC90E09093690180936801F8
:1009A00081EC90E090936B0180936A0182EC90E07F
:1009B00090936D0180936C0186EC90E090936F01B1
:1009C00080936E0110927101109272011092730166
:1009D00010927401809119028C3048F591E0980FC3
:1009E0009093190280931D0290E0FC01EE0FFF1F0F
:1009F000E80FF91FEB50FE4F88EB9BE09283818359
:100A0000809119028C30B8F491E0980F90931902FC
:100A100080931A0290E0FC01EE0FFF1FE80FF91F10
:100A2000EB50FE4F88EB9BE09283818308958FEF1C
:100A300080931D02E5CF8FEF80931A020895CF9324
:100A4000DF93CDB7DEB7A9970FB6F894DEBF0FBE20
:100A5000CDBF789484B5826084BD84B5816084BD47
:100A600085B5826085BD85B5816085BD80916E004C
:100A7000816080936E00109281008091810082607D
:100A800080938100809181008160809381008091BA
:100A900080008160809380008091B10084608093A9
:100AA000B1008091B00081608093B00080917A00A5
:100AB000846080937A0080917A00826080937A00CB
:100AC00080917A00816080937A0080917A008068BA
:100AD00080937A001092C100E0916801F091690161
:100AE00082E08083E0916401F09165011082E091E1
:100AF0006601F09167018FEC808310927001E091A4
:100B00006C01F0916D0186E08083E0916A01F091C3
:100B10006B01808180618083E0916A01F0916B01BB
:100B2000808188608083E0916A01F0916B0180810F
:100B300080688083E0916A01F0916B0180818F7DF4
:100B40008083A8E0B1E020E131E08D919D9199276B
:100B5000FC01E057FF4F449184589F4FFC01849162
:100B60008823C9F090E0880F991FFC01E859FF4FD6
:100B700065917491FC01EE58FF4F059114919FB758
:100B8000F894FB018081409584238083F801808163
:100B9000842380839FBF2A173B07B9F62FB7F894A9
:100BA0008091500190915101A0915201B091530157
:100BB0002FBF88389341A105B10508F06AC0809124
:100BC000350190913601209133013091340128177D
:100BD000390724F49093340180933301209100016C
:100BE000309101018217930724F4909301018093BF
:100BF00000018091390190913A01209137013091A3
:100C000038012817390724F490933801809337016D
:100C100020910201309103018217930724F49093ED
:100C200003018093020180913D0190913E0120914A
:100C30003B0130913C012817390724F490933C0183
:100C400080933B01209104013091050182179307A5
:100C500024F49093050180930401809141019091C7
:100C6000420120913F01309140012817390724F4B7
:100C70009093400180933F0120910601309107013C
:100C8000821793070CF08ACF909307018093060197
:100C900085CF69E070E08DE192E00E94C5026AE0D4
:100CA00070E08AE192E00E94C50284EB282E312C8C
:100CB0009AE0492E512C612C712C00E010E08EE05E
:100CC0000E944F019093360180933501C09000013E
:100CD000D09001010D2C000CEE08FF089C01990F2B
:100CE000440B550B2C193D094E095F09A4EBB0E0EC
:100CF0000E94F2072091330130913401032E000C41
:100D0000440B550B2C193D094E095F090E94D3076E
:100D10002AA33BA34CA35DA38AA19BA190934E0160
:100D200080934D018FE00E944F0190933A01809390
:100D30003901C0900201D09003010D2C000CEE0887
:100D4000FF089C01990F440B550B2C193D094E09C6
:100D50005F09A4EBB0E00E94F207209137013091C7
:100D60003801032E000C440B550B2C193D094E097C
:100D70005F090E94D3072EA33FA348A759A7EEA15E
:100D8000FFA1F0934C01E0934B0180E10E944F01E1
:100D900090933E0180933D01C0900401D0900501E5
:100DA0000D2C000CEE08FF089C01990F440B550B0D
:100DB0002C193D094E095F09A4EBB0E00E94F2072F
:100DC00020913B0130913C01032E000C440B550B4C
:100DD0002C193D094E095F090E94D3076901309320
:100DE0004A012093490181E10E944F019C019093A7
:100DF0004201809341018090060190900701092CE7
:100E0000000CAA08BB08032E000C440B550B281934
:100E100039094A095B09A4EBB0E00E94F20720916E
:100E20003F0130914001032E000C440B550B281953
:100E300039094A095B090E94D3073093480120937E
:100E400047018AA09BA08EA19FA1880E991EC40174
:100E50008C0D9D1D820F931F909346018093450139
:100E6000C20ED31E8C149D04ECF410924401109217
:100E70004301E0904301F090440195EBE916F10441
:100E80007CF5C7010E9487006FE070E080E090E091
:100E90000E948601EFEFEE1AFE0AF0924401E09202
:100EA0004301E7CFC814D904DCF430924401209206
:100EB0004301E0904301F0904401F7FC11C0C701E9
:100EC0000E9487006FE070E080E090E00E94860161
:100ED000F1E0EF1AF108F0924401E0924301E9CF0A
:100EE00082E291E00E943D038FE291E00E943D0387
:100EF000C0904501D09046010D2C000CEE08FF0873
:100F0000F7FE3BC06DE288E591E00E94580222277F
:100F10003327A9012C193D094E095F0919A2CE01F9
:100F200081967C01CA01B901A30192010E940508C2
:100F3000605DF70162937F0121153105410551057F
:100F400089F7E114F10419F0C7010E943D038FE213
:100F500091E00E943D0368EE73E080E090E00E9423
:100F600086010115110509F4AACE0E9422028823E8
:100F700009F4A5CE0E940000A2CEA701960119A2F5
:100F8000CE0181967C01CA01B901A30192010E94A0
:100F90000508605DF70162937F0121153105410568
:100FA000510589F7CECF052E97FB1EF400940E94C1
:100FB000EA0757FD07D00E94050807FC03D04EF44E
:100FC0000C94EA0750954095309521953F4F4F4F2F
:100FD0005F4F089590958095709561957F4F8F4FE5
:100FE0009F4F08950E942708A59F900DB49F900DD4
:100FF000A49F800D911D11240895B7FF0C94F20752
:101000000E94F207821B930B0895A1E21A2EAA1BDD
:10101000BB1BFD010DC0AA1FBB1FEE1FFF1FA217A8
:10102000B307E407F50720F0A21BB30BE40BF50BA5
:10103000661F771F881F991F1A9469F7609570952E
:10104000809590959B01AC01BD01CF010895A29FB1
:10105000B001B39FC001A39F700D811D1124911D8C
:10106000B29F700D811D1124911D0895991B79E087
:1010700004C0991F961708F0961B881F7A95C9F728
:1010800080950895EE0FFF1F0590F491E02D0994CF
:10109000F894FFCFFF03FF03FF03FF030E000F00D1
:1010A00010001100000000005802B801E501A5027F
:1010B0001602F401080273756D5F76616C756573D5
:0610C0003A20000D0A00B9
:107E0000112484B714BE81FFF0D085E080938100F7
:107E100082E08093C00088E18093C10086E0809377
:107E2000C20080E18093C4008EE0C9D0259A86E02C
:107E300020E33CEF91E0309385002093840096BBD3
:107E4000B09BFECF1D9AA8958150A9F7CC24DD24C4
:107E500088248394B5E0AB2EA1E19A2EF3E0BF2EE7
:107E6000A2D0813461F49FD0082FAFD0023811F036
:107E7000013811F484E001C083E08DD089C08234E0
:107E800011F484E103C0853419F485E0A6D080C0E4
:107E9000853579F488D0E82EFF2485D0082F10E0AE
:107EA000102F00270E291F29000F111F8ED06801E7
:107EB0006FC0863521F484E090D080E0DECF843638
:107EC00009F040C070D06FD0082F6DD080E0C81688
:107ED00080E7D80618F4F601B7BEE895C0E0D1E017
:107EE00062D089930C17E1F7F0E0CF16F0E7DF06D8
:107EF00018F0F601B7BEE89568D007B600FCFDCFD4
:107F0000A601A0E0B1E02C9130E011968C91119780
:107F100090E0982F8827822B932B1296FA010C0160
:107F200087BEE89511244E5F5F4FF1E0A038BF0790
:107F300051F7F601A7BEE89507B600FCFDCF97BE46
:107F4000E89526C08437B1F42ED02DD0F82E2BD052
:107F50003CD0F601EF2C8F010F5F1F4F84911BD097
:107F6000EA94F801C1F70894C11CD11CFA94CF0C13
:107F7000D11C0EC0853739F428D08EE10CD085E9AC
:107F80000AD08FE07ACF813511F488E018D01DD067
:107F900080E101D065CF982F8091C00085FFFCCF94
:107FA0009093C60008958091C00087FFFCCF809118
:107FB000C00084FD01C0A8958091C6000895E0E648
:107FC000F0E098E1908380830895EDDF803219F02E
:107FD00088E0F5DFFFCF84E1DECF1F93182FE3DFCA
:107FE0001150E9F7F2DF1F91089580E0E8DFEE27F6
:047FF000FF270994CA
:027FFE00040479
:00000001FF
